:100000000C9434000C9451000C9451000C942E016B
:100010000C94F3000C9485070C9451000C9451003F
:100020000C9451000C9462080C9451000C945100F3
:100030000C9451080C9446080C9451000C945100F7
:100040000C9451000C9451000C9485090C945100AF
:100050000C9451000C9451000C9451000C945100DC
:100060000C9451000C94510011241FBECFEFD8E026
:10007000DEBFCDBF11E0A0E0B1E0ECE3FBE102C0E8
:1000800005900D92A236B107D9F711E0A2E6B1E0D2
:1000900001C01D92A038B107E1F70E94B9040C9489
:1000A0009C0D0C9400009C01442737FD4095542F73
:1000B000CA01B901E3E0660F771F881F991FEA950F
:1000C000D1F7620F731F841F951F25E030E040E0D9
:1000D00050E00E944C0AB901CA0160507E4F8F4F18
:1000E0009F4F2AE030E040E050E00E940E0A20E1FD
:1000F00030E040E050E00E944C0AC9010895FC0144
:10010000DB0180917001882351F080917101882377
:1001100031F08091720180838091730105C08091DC
:100120005E01808380915F018C9308950F931F93EC
:10013000DF93CF9300D0CDB7DEB76AE070E00E94C6
:10014000390A8B01CE010196BE016E5F7F4F0E947E
:100150007F0088B18C6188B9898190E00817190700
:100160007CF4429891E090936D018091670188231F
:1001700099F580916A01882379F59093670114C0FD
:100180008A8190E080179107ECF4449882E0809394
:100190006D01809167018823F9F480916A018823B9
:1001A000D9F481E0809367018CE0809368018091AD
:1001B00068018093B300109266011092650110925D
:1001C00069010AC010926D0180916701882311F0C6
:1001D0001092670110926A010F900F90CF91DF91FA
:1001E0001F910F9108951F920F920FB60F92112435
:1001F0002F933F938F939F93EF93FF9388EC90E01F
:1002000020E931E0F9013197F1F70197D9F720E0C2
:10021000309921E090E0359991E0222339F48091E2
:100220006101882319F081E080936E01992339F4EC
:1002300080916001882319F081E080936F01209301
:10024000610190936001FF91EF919F918F913F9198
:100250002F910F900FBE0F901F9018951F920F9225
:100260000FB60F9211242F933F934F935F936F9389
:100270007F938F939F93AF93BF93EF93FF9380EA06
:100280009FE00197F1F71D9945C080916301882394
:1002900009F042C081E0809363018091700188235E
:1002A00021F0809171018823B9F580916401882340
:1002B00099F581E0809364018091620190E0882348
:1002C00009F491E09093620180916201882379F0B2
:1002D00080E060E00E94170680E091E00E94FA054D
:1002E00080E065E00E94170682E091E00EC080E0A9
:1002F00060E00E94170682E091E00E94FA0580E02B
:1003000065E00E94170680E091E00E94FA051092D5
:10031000640102C010926301FF91EF91BF91AF9110
:100320009F918F917F916F915F914F913F912F910D
:100330000F900FBE0F901F9018951F9384E690E0CA
:100340000E94AB0C182F85E690E00E94AB0C982F12
:10035000812F8253893250F4923340F09B3530F430
:10036000911720F010935E0190935F011F91089503
:1003700060915E0184E690E00E94B30C60915F01A1
:1003800085E690E00E94B30C0895FF920F931F93AF
:10039000DF93CF9300D00F92CDB7DEB78091640189
:1003A000882309F041C081E080936401809170014D
:1003B000882339F080917101882319F0F09073013E
:1003C00002C0F0905F0180E068E00E9417068DB7E0
:1003D0009EB708970FB6F8949EBF0FBE8DBFEDB7BE
:1003E000FEB731968E010F5F1F4FADB7BEB71296A5
:1003F0001C930E93119783E090E09383828384E0B3
:1004000091E095838483F68217820E949D0A8DB7BE
:100410009EB708960FB6F8949EBF0FBE8DBFC80159
:100420000E94FA05109264010F900F900F90CF91E7
:10043000DF911F910F91FF900895FF920F931F93EB
:10044000DF93CF9300D00F92CDB7DEB780916401D8
:10045000882309F041C081E080936401809170019C
:10046000882339F080917101882319F0F09072018E
:1004700002C0F0905E0180E063E00E9417068DB735
:100480009EB708970FB6F8949EBF0FBE8DBFEDB70D
:10049000FEB731968E010F5F1F4FADB7BEB71296F4
:1004A0001C930E93119783E090E09383828384E002
:1004B00091E095838483F68217820E949D0A8DB70E
:1004C0009EB708960FB6F8949EBF0FBE8DBFC801A9
:1004D0000E94FA05109264010F900F900F90CF9137
:1004E000DF911F910F91FF900895EF92FF920F936C
:1004F0001F93DF93CF93CDB7DEB728970FB6F8944D
:10050000DEBF0FBECDBF7C0180916401882309F05E
:1005100040C081E08093640180E06BE00E94170698
:100520008DB79EB70A970FB6F8949EBF0FBE8DBFCA
:10053000EDB7FEB731968E010F5F1F4FADB7BEB757
:1005400012961C930E93119788E090E09383828318
:1005500089E091E095838483C7016AE070E00E949E
:10056000390A77836683C7016AE070E00E94390A1E
:10057000918780870E949D0A8DB79EB70A960FB615
:10058000F8949EBF0FBE8DBFC8010E94FA0510925D
:10059000640128960FB6F894DEBF0FBECDBFCF9191
:1005A000DF911F910F91FF90EF9008958F929F928E
:1005B000AF92BF92CF92DF92EF92FF920F931F9371
:1005C000DF93CF93CDB7DEB761970FB6F894DEBF58
:1005D0000FBECDBF4C0181E0809364010E940606EE
:1005E00080E060E00E94170680917001882331F05E
:1005F00080917101CC24DD24882319F401E0C02E00
:10060000D12C809162017E010894E11CF11C14E060
:10061000A12E11E0B12E882389F182E191E00E94A0
:10062000FA0580915E012DB73EB7285030400FB6D5
:10063000F8943EBF0FBE2DBFEDB7FEB73196ADB7F4
:10064000BEB71296FC92EE92119701E110E013836F
:100650000283B582A482868317820E949D0A2DB7E9
:100660003EB7285F3F4F0FB6F8943EBF0FBE2DBF79
:10067000C7010E94FA0586E191E02DC08CE191E06E
:100680000E94FA0580915E01ADB7BEB718970FB60C
:10069000F894BEBF0FBEADBFEDB7FEB73196129650
:1006A000FC92EE92119701E110E013830283B58270
:1006B000A482868317820E949D0A2DB73EB7285FC9
:1006C0003F4F0FB6F8943EBF0FBE2DBFC7010E942B
:1006D000FA0580E291E00E94FA0580915F01ADB7D2
:1006E000BEB718970FB6F894BEBF0FBEADBFEDB73B
:1006F000FEB731961296FC92EE9211971383028305
:10070000B582A482868317820E949D0A2DB73EB7C8
:10071000285F3F4F0FB6F8943EBF0FBE2DBFC701F5
:100720000E94FA05CC2019F08AE191E002C080E035
:1007300091E00E94FA058DB79EB70A970FB6F8941C
:100740009EBF0FBE8DBFEDB7FEB731967E010894F8
:10075000E11CF11CADB7BEB71296FC92EE92119758
:1007600001E110E01383028389E091E095838483A3
:10077000C4016AE070E00E94390A77836683C4018D
:100780006AE070E00E94390A918780870E949D0A82
:100790002DB73EB7265F3F4F0FB6F8943EBF0FBE52
:1007A0002DBFC7010E94FA0580917101882309F4C9
:1007B000CBC081E060E00E94170680917001882321
:1007C00009F462C080917101882309F45DC082E15F
:1007D00091E00E94FA05209172018DB79EB70897AB
:1007E0000FB6F8949EBF0FBE8DBFEDB7FEB7319622
:1007F000ADB7BEB71296FC92EE92119713830283A7
:1008000084E091E095838483268317820E949D0A69
:100810002DB73EB7285F3F4F0FB6F8943EBF0FBECF
:100820002DBFC7010E94FA0580E291E00E94FA05FF
:10083000209173018DB79EB708970FB6F8949EBFAD
:100840000FBE8DBFEDB7FEB73196ADB7BEB71296EE
:10085000FC92EE9211971383028384E291E09583D8
:100860008483268317820E949D0A2DB73EB7285F96
:100870003F4F0FB6F8943EBF0FBE2DBFC7010E9479
:10088000FA058AE291E05EC082E191E00E94FA05F9
:1008900080917201ADB7BEB718970FB6F894BEBF7E
:1008A0000FBEADBFEDB7FEB731968E010F5F1F4F84
:1008B00012961C930E931197B1E1CB2ED12CD382BB
:1008C000C282A4E0EA2EA1E0FA2EF582E4828683B9
:1008D00017820E949D0A2DB73EB7285F3F4F0FB683
:1008E000F8943EBF0FBE2DBFC8010E94FA0580E2FA
:1008F00091E00E94FA0580917301ADB7BEB71897D9
:100900000FB6F894BEBF0FBEADBFEDB7FEB73196C0
:1009100012961C930E931197D382C282F582E482C1
:10092000868317820E949D0A2DB73EB7285F3F4FEE
:100930000FB6F8943EBF0FBE2DBFC8010E94FA0546
:1009400080E391E00E94FA051092640161960FB66F
:10095000F894DEBF0FBECDBFCF91DF911F910F91F5
:10096000FF90EF90DF90CF90BF90AF909F908F90CF
:100970000895AF92BF92CF92DF92EF92FF920F93C2
:100980001F93DF93CF9300D0CDB7DEB70E9421062F
:1009900025982D9A3D98459A87B18C6187B988B181
:1009A0008C6188B9239A2B9880916800816080932C
:1009B000680080916B00806280936B00809168007A
:1009C00082608093680080916C00816280936C00EB
:1009D0000E9447070E9421080E9439080E94370997
:1009E000789481E00E94060680E060E00E9417068D
:1009F00087E391E00E94FA0581E060E00E9417061B
:100A000084E491E00E94FA0580E29EE420E931E06E
:100A1000F9013197F1F70197D9F781E00E940606B5
:100A20000E949D010E94B406882361F481E00E9427
:100A3000060680E060E00E9417068FE491E00E94C5
:100A4000FA05FFCF0E9486068EEE92E00E94D60243
:100A50008EEE92E00E9496008EEE92E00E94B10827
:100A60000EEE12E05E010894A11CB11C80E2C82EBB
:100A70008EE4D82EC5010E942407882399F0FA80BD
:100A8000EE24898190E08E299F290E9453008C01D9
:100A90000E947502C8010E949600C8010E94B10818
:100AA0000E94860680916E01882321F010926E01CB
:100AB0000E94460980916F018823B9F010926F015E
:100AC00080917101882389F08091700190E08823E2
:100AD00009F491E090937001C8010E94D602C80108
:100AE0000E949600C8010E94B10880917601882377
:100AF00039F0109276010E94CC09C8010E94D602FA
:100B000080916B01882309F4B5CF10926B0180911D
:100B10007001882309F04CC080916201882301F1A3
:100B200080916C01181644F480915F018A3520F49D
:100B300080915F018F5F0DC080916C0187FF0DC0B8
:100B400090915F0180915E01891738F480915F0177
:100B5000815080935F010E94B8010E94C5011FC0AF
:100B600080916C01181654F490915E0180915F01A0
:100B7000981720F480915E018F5F0BC080916C010B
:100B800087FF0BC080915E01833338F080915E0156
:100B9000815080935E010E94B8010E941D02109254
:100BA0006C01C8010E949600C8010E94B10802C0F1
:100BB00010926C01C6010197F1F75CCF9BB19F7059
:100BC0009BB99BB18295807F982B9BB9299A299AD2
:100BD000299808951F93182F289A82958F700E9444
:100BE000DE05812F0E94DE0580E49FE10197F1F789
:100BF0001F910895CF93DF93EC0102C00E94EA0594
:100C000089918823D9F7DF91CF9108951F93182FE9
:100C1000289882958F700E94DE05812F8F700E9428
:100C2000DE0580E49FE10197F1F71F910895882385
:100C300019F4862F805802C0862F80540E94060621
:100C4000089584B1836084B98AB1806F8AB980E6DF
:100C50009AEE0197F1F780E30E94DE0580E29EE4C0
:100C60000197F1F780E30E94DE0580EE91E00197A5
:100C7000F1F780E30E94DE0580E20E94DE0580E459
:100C80009FE10197F1F788E20E9406068FE00E943B
:100C900006060895399A80E699E00197F1F73998A8
:100CA0008CE091E00197F1F7319B02C080E008955C
:100CB000319BFECF88EC90E00197F1F781E0089539
:100CC000399A80E28A95F1F7399880E091E00197AE
:100CD000F1F70895399A80EF90E00197F1F739988C
:100CE00085E38A95F1F708950F931F93082F18E075
:100CF00000FF03C00E94600602C00E946A061150F5
:100D000011F00695F5CF1F910F9108950E944A06A4
:100D1000882331F08CEC0E94740684E40E947406EF
:100D20000895399A80E28A95F1F7399880E38A9597
:100D3000F1F786B1ECEDF0E03197F1F782700895AC
:100D4000FF920F931F9388E0F82E00E011E00E94BD
:100D500091068111012BFA9411F0110FF8CF802F19
:100D60001F910F91FF900895EF92FF920F931F93A1
:100D7000DF93CF93CDB7DEB729970FB6F894DEBFD8
:100D80000FBECDBF3998419888EE93E020E931E05D
:100D9000F9013197F1F70197D9F7319B47C00E94CC
:100DA0004A06882309F442C08CEC0E9474068EEB3C
:100DB0000E9474068E010F5F1F4F9AE0E92EF12CFE
:100DC000EC0EFD1E0E94A006F80181938F01EE1526
:100DD000FF05C1F70E944A06882341F18CEC0E946E
:100DE00074068EE40E9474068B810E9474068C81C6
:100DF0000E9474068FE70E94740680E991E00197D3
:100E0000F1F70E944A06882389F08CEC0E94740650
:100E100088E40E94740688EC90E020E931E0F90152
:100E20003197F1F70197D9F781E001C080E0299669
:100E30000FB6F894DEBF0FBECDBFCF91DF911F91EB
:100E40000F91FF90EF9008951F93CF93DF93EC01E4
:100E50000E9491068823B9F00E944A06882391F0E7
:100E60008CEC0E9474068EEB0E9474060E94A00611
:100E700088830E94A006898310E00E94A0061F5F5D
:100E80001730D9F781E0DF91CF911F9108958AB192
:100E9000837F8AB98BB18C608BB980916800846044
:100EA0008093680080916D008C6080936D0089B1A3
:100EB00080917A01882339F480917901882319F48B
:100EC000109278011DC080917A01882321F48091CD
:100ED0007901813099F080917A01813031F48091EB
:100EE0007901882311F482E009C080917A01813070
:100EF00039F480917901813019F483E0809378018D
:100F0000809178018093770108951F920F920FB618
:100F10000F9211248F939F9380EA9FE00197F1F73E
:100F200099B192FF04C081E08093790102C01092D0
:100F3000790193FF04C081E080937A0102C010928E
:100F40007A01809178018823B1F480917A01882315
:100F500031F480917901882311F081E057C08091AC
:100F60007A01882309F459C080917901882309F016
:100F700054C082E03CC0809178018130B1F480910E
:100F80007A01882331F080917901882311F083E080
:100F90003DC080917A01882309F03FC0809179019A
:100FA0008823D9F51092770124C08091780182308E
:100FB000A9F480917A01882331F080917901882306
:100FC00011F083E014C080917A01882331F580917B
:100FD0007901882311F5109277011AC080917A0166
:100FE000882359F480917901882339F081E0809336
:100FF000770180916C018F5F0EC080917A01882308
:1010000061F080917901882341F482E08093770137
:1010100080916C01815080936C0190917701809157
:101020007801981739F081E080936B018091770106
:10103000809378019F918F910F900FBE0F901F901A
:10104000189583E0809380008BE180938100E8E82D
:10105000F0E084EC99E09183808380819181969582
:10106000879590938B0080938A0085E080936F0032
:10107000089583E88093B00087E08093B1008CE00E
:101080008093B30081E08093700008951F920F92C7
:101090000FB60F921124439A0F900FBE0F901F901E
:1010A00018951F920F920FB60F9211248F93809173
:1010B0006D01882309F443988F910F900FBE0F9014
:1010C0001F9018951F920F920FB60F9211245F93E5
:1010D0006F937F938F939F93AF93BF93809167019B
:1010E000882399F180916501909166010196909312
:1010F0006601809365018091650190916601CD97AD
:1011000020F11092660110926501809169018F5F54
:1011100080936901809169018A3030F010926701F3
:1011200081E080936A0111C09091690187E1989FE5
:10113000C00111246AE070E00E94390A645F609384
:101140006801809168018093B300BF91AF919F9136
:101150008F917F916F915F910F900FBE0F901F90B5
:101160001895AF92BF92CF92DF92EF92FF920F93BA
:101170001F93DF93CF9300D0CDB7DEB76C01809182
:101180006D01882309F05EC0CE010196BE016E5F3D
:101190007F4F0E947F002A81E9812E1769F42091F8
:1011A00088003091890080918800909189009695FF
:1011B0008795820F931F14C0C6016AE070E00E94F9
:1011C000390ADB01AE2EBB24A616B706DCF5C22E0B
:1011D000DD246C157D053CF080918800909189009C
:1011E0009695879533C02091880030918900E091D1
:1011F0008800F0918900E0908800F090890000E07C
:1012000010E0AA19BB09BD01882777FD8095982FAA
:10121000F695E7952E1B3F0B40E050E00E940E0A2A
:10122000CA18DB089601442737FD4095542F0E94C9
:101230004C0AE21AF30A040B150BF0928B00E092B1
:101240008A0008C0809188009091890090938B005B
:1012500080938A000F900F90CF91DF911F910F9193
:10126000FF90EF90DF90CF90BF90AF90089587E60A
:1012700090E09093C5008093C40088E98093C100FA
:1012800086E08093C200249A2C9808958091C00033
:1012900085FFFCCF8CE38093C6008091C00085FF62
:1012A000FCCF80915E016AE00E942D0A805D8093F0
:1012B000C6008091C00085FFFCCF80915E016AE08E
:1012C0000E942D0A905D9093C6008091C00085FF1A
:1012D000FCCF80915F016AE00E942D0A805D8093BF
:1012E000C6008091C00085FFFCCF80915F016AE05D
:1012F0000E942D0A905D9093C6008091C00085FFEA
:10130000FCCF8EE38093C60008951F920F920FB614
:101310000F9211248F939F93EF93FF939091C600A8
:101320009C3331F481E080937401109275012BC0DD
:101330009E3361F480917401882319F180917501C5
:101340008823F9F081E0809376011BC080917401BD
:10135000882399F080917501843078F4892F805327
:101360008A3078F480917501E82FF0E0E558FE4F5F
:1013700090838F5F8093750106C0809175018430E2
:1013800010F010927401FF91EF919F918F910F9047
:101390000FBE0F901F901895E0917501F0E0E55891
:1013A000FE4F108280917501843019F01092760101
:1013B000089580917B0130917C0130515AE0859FE6
:1013C000C0011124380F40917D0190917E01832F3F
:1013D0008253893200F5292F2051459FC0011124E5
:1013E000280F2233C0F02B35B0F42317A0F0309330
:1013F00072012093730181E08093710180917001EB
:10140000882359F08EEE92E00E9496008EEE92E0D4
:101410000E94B1080895109276010895629FD0014C
:10142000739FF001829FE00DF11D649FE00DF11D9F
:10143000929FF00D839FF00D749FF00D659FF00D4E
:101440009927729FB00DE11DF91F639FB00DE11D3B
:10145000F91FBD01CF0111240895991B79E004C043
:10146000991F961708F0961B881F7A95C9F78095E3
:10147000089597FB092E07260AD077FD04D027D0C0
:1014800006D000201AF4709561957F4F0895F6F705
:10149000909581959F4F089597FB092E05260ED0B4
:1014A00057FD04D028D00AD0001C38F45095409540
:1014B000309521953F4F4F4F5F4F0895F6F7909528
:1014C0008095709561957F4F8F4F9F4F0895AA1B10
:1014D000BB1B51E107C0AA1FBB1FA617B70710F01F
:1014E000A61BB70B881F991F5A95A9F78095909551
:1014F000BC01CD010895A1E21A2EAA1BBB1BFD0160
:101500000DC0AA1FBB1FEE1FFF1FA217B307E407E2
:10151000F50720F0A21BB30BE40BF50B661F771F3A
:10152000881F991F1A9469F760957095809590951A
:101530009B01AC01BD01CF010895AEE0B0E0E3EA4C
:10154000FAE00C94730D0D891E898F89988D97FF91
:1015500002C080E090E801979E838D831A830983FF
:1015600086E08C839E01255E3F4FCE010196698DFA
:101570007A8DA9010E94CE0A4D815E8157FD0AC075
:101580002F813885421753070CF49A01020F131F5D
:10159000F80110822E96E4E00C948F0DABE0B0E0E1
:1015A000E4EDFAE00C94650D3C012B015A01FC01BD
:1015B00017821682838181FD03C06FEF7FEFC6C162
:1015C0009AE0892E1E010894211C311CF30123810D
:1015D000F20123FD859123FF81912F01882309F4D6
:1015E000B2C1853239F423FD859123FF81912F010A
:1015F000853229F490E0B3010E94DB0CE7CF982FED
:10160000FF24EE249924FFE1FF15D0F09B3269F00E
:101610009C3228F4903259F0933291F40EC09D32EE
:1016200049F0903369F441E024C052E0F52A84E0A7
:10163000F82A28C098E0F92A25C0E0E1FE2A22C055
:10164000F7FC29C0892F80538A3070F4F6FE05C05C
:10165000989C902C1124980E15C0E89CE02C112425
:10166000E80EF0E2FF2A0EC09E3229F4F6FC6BC1B0
:1016700040E4F42A07C09C3619F450E8F52A02C069
:10168000983649F4F20123FD959123FF91912F01A2
:10169000992309F0B8CF892F8554833018F08052F0
:1016A000833038F444E050E0A40EB51E5FE3598364
:1016B0000FC0933631F0933779F0933509F056C067
:1016C00020C0F5018081898342E050E0A40EB51E60
:1016D000610101E010E012C0F501C080D180F6FC8C
:1016E00003C06FEF7FEF02C0692D70E042E050E071
:1016F000A40EB51EC6010E94D00C8C015FE7F52236
:1017000014C0F501C080D180F6FC03C06FEF7FEFFD
:1017100002C0692D70E042E050E0A40EB51EC60183
:101720000E94C50C8C0150E8F52AF3FE07C01AC0D0
:1017300080E290E0B3010E94DB0CEA948E2D90E0F1
:1017400008171907A8F30EC0F601F7FC8591F7FEFC
:1017500081916F0190E0B3010E94DB0CE110EA94EB
:10176000015010400115110579F7EAC0943611F0C7
:10177000993669F5F7FE08C0F50120813181428173
:10178000538184E090E00AC0F501808191819C0141
:10179000442737FD4095542F82E090E0A80EB91EF3
:1017A0009FE6F92257FF09C0509540953095219545
:1017B0003F4F4F4F5F4FE0E8FE2ACA01B901A10138
:1017C0002AE030E00E94070DD82ED21840C095378D
:1017D00029F41F2D1F7E2AE030E01DC01F2D197F28
:1017E0009F3661F0903720F4983509F0ACC00FC0F7
:1017F000903739F0983709F0A6C004C028E030E0EF
:101800000AC0106114FD146020E130E004C014FD32
:10181000166020E132E017FF08C0F5016081718198
:101820008281938144E050E008C0F501808191817C
:10183000BC0180E090E042E050E0A40EB51EA101A2
:101840000E94070DD82ED2188FE7F82EF122F6FE4F
:101850000BC05EEFF522D91438F4F4FE07C0F2FC99
:1018600005C08FEEF82202C01D2D01C0192DF4FE17
:101870000DC0FE01ED0DF11D8081803319F499EE4C
:10188000F92208C01F5FF2FE05C003C08F2D8678C5
:1018900009F01F5F0F2DF3FC14C0F0FE0FC01E15E2
:1018A00010F09D2C0BC09D2C9E0C911A1E2D06C075
:1018B00080E290E0B3010E94DB0C1F5F1E15C0F3B5
:1018C00004C01E1510F4E11A01C0EE2404FF0FC07D
:1018D00080E390E0B3010E94DB0C02FF1DC001FD1C
:1018E00003C088E790E00EC088E590E00BC0802F31
:1018F000867891F001FF02C08BE201C080E2F7FC24
:101900008DE290E0B3010E94DB0C06C080E390E022
:10191000B3010E94DB0C9A94D914C0F3DA94F1015C
:10192000ED0DF11D808190E0B3010E94DB0CDD2004
:10193000A9F706C080E290E0B3010E94DB0CEA94B4
:10194000EE20C1F743CEF30166817781CB012B9660
:10195000E2E10C94810DF999FECF92BD81BDF89A18
:10196000992780B50895262FF999FECF92BD81BDA4
:10197000F89A019700B4021639F01FBA20BD0FB6CD
:10198000F894FA9AF99A0FBE0895FC0105906150F7
:1019900070400110D8F7809590958E0F9F1F089585
:1019A000FC016150704001900110D8F7809590952E
:1019B0008E0F9F1F08950F931F93CF93DF938C017A
:1019C000EB018B8181FF1BC082FF0DC02E813F8107
:1019D0008C819D812817390764F4E881F98101938E
:1019E000F983E88306C0E885F985802F0995892B5E
:1019F00031F48E819F8101969F838E8302C00FEF09
:101A00001FEFC801DF91CF911F910F910895FA0147
:101A1000AA27283051F1203181F1E8946F936E7F2D
:101A20006E5F7F4F8F4F9F4FAF4FB1E03ED0B4E01E
:101A30003CD0670F781F891F9A1FA11D680F791F5F
:101A40008A1F911DA11D6A0F711D811D911DA11D70
:101A500020D009F468943F912AE0269F1124301980
:101A6000305D3193DEF6CF010895462F4770405D1B
:101A70004193B3E00FD0C9F7F6CF462F4F70405DCA
:101A80004A3318F0495D31FD4052419302D0A9F725
:101A9000EACFB4E0A6959795879577956795BA951F
:101AA000C9F700976105710508959B01AC010A2EE5
:101AB00006945795479537952795BA95C9F7620FBC
:101AC000731F841F951FA01D08952F923F924F9260
:101AD0005F926F927F928F929F92AF92BF92CF92BE
:101AE000DF92EF92FF920F931F93CF93DF93CDB7C7
:101AF000DEB7CA1BDB0B0FB6F894DEBF0FBECDBF3F
:101B000009942A88398848885F846E847D848C840F
:101B10009B84AA84B984C884DF80EE80FD800C8118
:101B20001B81AA81B981CE0FD11D0FB6F894DEBFFB
:0C1B30000FBECDBFED010895F894FFCF6B
:101B3C0020003E002530326400202532642E2531F1
:101B4C006400204C3D003E483D003C003E4C3D00B6
:101B5C0020483D00253032643C002020202020000D
:101B6C002020202020200054656D70204D6F6E6960
:101B7C00746F72005279616E205361686172004417
:101B8C00533138423230204572726F722100464B0D
:021B9C00010145
:00000001FF
